{
  "contractName": "Oracle",
  "abi": [
    {
      "inputs": [],
      "payable": false,
      "stateMutability": "nonpayable",
      "type": "constructor"
    },
    {
      "anonymous": false,
      "inputs": [],
      "name": "__calbackNewDollarValueData",
      "type": "event"
    },
    {
      "constant": true,
      "inputs": [],
      "name": "dollar",
      "outputs": [
        {
          "internalType": "uint256",
          "name": "",
          "type": "uint256"
        }
      ],
      "payable": false,
      "stateMutability": "view",
      "type": "function"
    },
    {
      "constant": false,
      "inputs": [],
      "name": "update",
      "outputs": [],
      "payable": false,
      "stateMutability": "nonpayable",
      "type": "function"
    },
    {
      "constant": false,
      "inputs": [
        {
          "internalType": "uint256",
          "name": "_value",
          "type": "uint256"
        }
      ],
      "name": "set",
      "outputs": [],
      "payable": false,
      "stateMutability": "nonpayable",
      "type": "function"
    },
    {
      "constant": true,
      "inputs": [],
      "name": "get",
      "outputs": [
        {
          "internalType": "uint256",
          "name": "",
          "type": "uint256"
        }
      ],
      "payable": false,
      "stateMutability": "view",
      "type": "function"
    }
  ],
  "bytecode": "0x608060405234801561001057600080fd5b50336000806101000a81548173ffffffffffffffffffffffffffffffffffffffff021916908373ffffffffffffffffffffffffffffffffffffffff16021790555060646001819055506102c6806100686000396000f3fe608060405234801561001057600080fd5b506004361061004c5760003560e01c806351adeb571461005157806360fe47b11461006f5780636d4ce63c1461009d578063a2e62045146100bb575b600080fd5b6100596100c5565b6040518082815260200191505060405180910390f35b61009b6004803603602081101561008557600080fd5b81019080803590602001909291905050506100cb565b005b6100a5610197565b6040518082815260200191505060405180910390f35b6100c36101a1565b005b60015481565b6000809054906101000a900473ffffffffffffffffffffffffffffffffffffffff1673ffffffffffffffffffffffffffffffffffffffff163373ffffffffffffffffffffffffffffffffffffffff161461018d576040517f08c379a000000000000000000000000000000000000000000000000000000000815260040180806020018281038252600a8152602001807f4f6e6c79206f776e65720000000000000000000000000000000000000000000081525060200191505060405180910390fd5b8060018190555050565b6000600154905090565b6000809054906101000a900473ffffffffffffffffffffffffffffffffffffffff1673ffffffffffffffffffffffffffffffffffffffff163373ffffffffffffffffffffffffffffffffffffffff1614610263576040517f08c379a000000000000000000000000000000000000000000000000000000000815260040180806020018281038252600a8152602001807f4f6e6c79206f776e65720000000000000000000000000000000000000000000081525060200191505060405180910390fd5b7f82e882041e7d57dd9f49632d66883cbfab725ee6699e989a5a718c76914e26b560405160405180910390a156fea265627a7a72315820f9179e7b67e28469891f7c78971e7222d55d44386fd005d08932664d996db1d964736f6c63430005100032",
  "source": "pragma solidity ^0.5.0;\n\ncontract Oracle {\n  address owner;\n  uint public dollar;\n\n  event __calbackNewDollarValueData();\n\n  modifier onlyOwner() {\n    require(msg.sender == owner, 'Only owner');\n    _;\n  }\n\n  constructor() public {\n    owner = msg.sender;\n    dollar = 100;\n  }\n\n  function update() public onlyOwner {\n    emit __calbackNewDollarValueData();\n  }\n\n  function set(uint _value) public onlyOwner {\n    dollar = _value;\n  }\n\n  function get() view public returns (uint) {\n    return dollar;\n  }\n\n}",
  "sourcePath": "C:/Users/Sebastian Paradero/Desktop/Personal/CursoSmartContract/Projects/blockchain/Oracle/contracts/Oracle.sol",
  "compiler": {
    "name": "solc",
    "version": "0.5.16+commit.9c3226ce.Emscripten.clang"
  },
  "schemaVersion": "3.3.4",
  "updatedAt": "2021-07-21T18:11:46.127Z",
  "devdoc": {
    "methods": {}
  },
  "userdoc": {
    "methods": {}
  }
}